:020000040000FA
:10000000001000101D0200002F0200002502000059
:1000100000000000000000000000000000000000E0
:1000200000000000000000000000000027020000A7
:100030000000000000000000290200002B02000068
:100040002F0200002F0200002F0200002F020000EC
:100050002F0200002F0200002F0200002F020000DC
:100060002F0200002F0200002F0200002F020000CC
:100070002F0200002F0200002F0200002F020000BC
:100080002F0200002F0200002F0200002F020000AC
:100090002F0200002F0200002D0200002D020000A0
:1000A0002F0200002F0200002F0200002D0200008E
:1000B0002F0200002F0200002F0200002F0200007C
:1000C000FFFFFFFFFFFFFFFFFFFFFFFFFFFFFFFF40
:1000D000FFFFFFFFFFFFFFFFFFFFFFFFFFFFFFFF30
:1000E000FFFFFFFFFFFFFFFFFFFFFFFFFFFFFFFF20
:1000F000FFFFFFFFFFFFFFFFFFFFFFFFFFFFFFFF10
:10010000FFFFFFFFFFFFFFFFFFFFFFFFFFFFFFFFFF
:10011000FFFFFFFFFFFFFFFFFFFFFFFFFFFFFFFFEF
:10012000FFFFFFFFFFFFFFFFFFFFFFFFFFFFFFFFDF
:10013000FFFFFFFFFFFFFFFFFFFFFFFFFFFFFFFFCF
:10014000FFFFFFFFFFFFFFFFFFFFFFFFFFFFFFFFBF
:10015000FFFFFFFFFFFFFFFFFFFFFFFFFFFFFFFFAF
:10016000FFFFFFFFFFFFFFFFFFFFFFFFFFFFFFFF9F
:10017000FFFFFFFFFFFFFFFFFFFFFFFFFFFFFFFF8F
:10018000FFFFFFFFFFFFFFFFFFFFFFFFFFFFFFFF7F
:10019000FFFFFFFFFFFFFFFFFFFFFFFFFFFFFFFF6F
:1001A000FFFFFFFFFFFFFFFFFFFFFFFFFFFFFFFF5F
:1001B000FFFFFFFFFFFFFFFFFFFFFFFFFFFFFFFF4F
:1001C000FFFFFFFFFFFFFFFFFFFFFFFFFFFFFFFF3F
:1001D000FFFFFFFFFFFFFFFFFFFFFFFFFFFFFFFF2F
:1001E000FFFFFFFFFFFFFFFFFFFFFFFFFFFFFFFF1F
:1001F000FFFFFFFFFFFFFFFFFFFFFFFFFFFFFFFF0F
:100200000548854601F0ECFA00F016F800F076FE9D
:1002100000480047471C00000010001004488047B9
:1002200004480047FEE7FEE7FEE7FEE7FEE7FEE7DD
:10023000A91C000001020000042104A002F0B4FE89
:100240000349086003490860FFF7E0FF3A7474004F
:100250000C070010F806001038B505466846057012
:100260000C46086800230122694602F023FF00289B
:1002700002D00020C04338BDE068401CE060284642
:1002800038BD70B50446006802F07AFE0025ED43E3
:10029000002805DBE168206802F0F8FE002801DA9A
:1002A000284670BD002070BD30B50B4601460020C9
:1002B0002022012409E00D46D5409D4205D31D466C
:1002C0009540491B2546954040191546521E002D64
:1002D000F1DC30BD70B500242546002801DA012488
:1002E0004042002901DA01254942FFF7DDFFAC4217
:1002F00000D04042002C00D0494270BDFFFFFFFFFC
:1003000070B5FE4C204602F041FF8011FC490860A8
:10031000FC490968FA4A1268881A00F0EFFE0446A0
:1003200000F02EFFF84908600846006800F0E6FE7D
:100330000446F6480CC8204600F06CFEF44A03C29E
:100340000022F44BF24903C900F066FF04D20021F9
:10035000F048EF4A116050600022EF4BEC4903C9AE
:1003600000F046FF04D20021EB48E94A11605060DA
:10037000EA4AEB4BE64903C900F04EFF04D20821DC
:10038000E84801F0E1FE30E0E44AE54BE04903C90A
:1003900000F02EFF0BD800221346DD4903C900F000
:1003A0003BFF04D80421DF4801F0CEFE1DE000220F
:1003B0001346D74903C900F01BFF0BD2D74ADA4BCB
:1003C000D34903C900F028FF04D80221D54801F021
:1003D000BBFE0AE0D14AD44BCD4903C900F008FF67
:1003E00003D20121CF4801F0AFFEC94903C9CF4A6A
:1003F00003C2CA4ACE4BCF4903C900F00DFF06D84D
:100400000120CD4908600921C64801F09DFEC34A7C
:10041000CA4BC84903C900F0EBFE06D80220C64902
:1004200008600621BF4801F08FFEC348006800281D
:1004300017D1B74903C900F003FF04462146C0485D
:1004400002F015F8B2490D6849680122D2075140FF
:10045000284600F0F5FE04462146BA4802F007F8A7
:100460001AE00021AA4A11605160114603C900F048
:10047000E7FE04462146B24801F0F9FFA4490D68A1
:1004800049680122D2075140284600F0D9FE0446AF
:100490002146AC4801F0EBFF70BDFEB5AA49A84863
:1004A00000F0DEFAA849A74800F0DAFAA74CA84DF8
:1004B000A84EA949304600F031FD019000F04BFEF6
:1004C000074629462046143001F025FD39462046CE
:1004D00001F0AAFE00BF00BF0121924801F034FEE6
:1004E00002219E4801F025FD9D4800F05DFB9D48DE
:1004F00000F05AFB7F20C00503F0BEFC9A499048EB
:1005000000F0AEFA98498F4800F0AAFA4EE09448FD
:1005100000F056FB95490860924800F051FB944961
:100520000860924909684942914A1268881800F0A7
:10053000D9FD07460121890700F02DFD044600F092
:1005400043FE05468B4A8C4B00F064FD794A03C29A
:10055000784803C8019100906D480CC8684801684C
:1005600086A001F0B9FF8D4803F086FC7248006850
:1005700001280BD10021724801F079FF0021714858
:1005800001F075FF864803F077FC10E06A480068C8
:1005900002280BD100216A4801F069FF0021694857
:1005A00001F065FF7E4803F067FC00E0AFE700BFA5
:1005B0000D215C4801F0C8FD0021614801F057FFA2
:1005C0000021604801F053FF3F20000603F054FC77
:1005D00000215B4801F04BFF00215A4801F047FF22
:1005E0007F20C00503F048FC0020FEBD30B58DB073
:1005F0000020C04309900A900B900C900590069043
:10060000079008900190029003900490CB20800006
:1006100075231B018722920062490090414801F036
:100620002FFD0446604A614901F09DFF604933484F
:1006300001F04BFE5F49604801F047FE434C204605
:1006400001F0E8FB04465D4800212060204614309C
:1006500001F065FC0546143D534A5949284601F00E
:1006600082FF0023574A5849584801F073FD044659
:100670004D4A574901F077FF564B574A5749304882
:1006800000F0C9F90446484A554901F06CFF91232E
:100690009B01544A132149022A4800F0BCF9044640
:1006A000414A4F4901F05FFF0020C04309900A9082
:1006B0000B900C9005900690079008900190029086
:1006C000039004904848494B3F4A6C32AD214901A0
:1006D0000090224801F03EFC0446334A444901F0B0
:1006E00042FF01203021831E374A6C320091019075
:1006F000AD2149011A4800F0F7F97BE0E400001051
:10070000E8000010C000001020010010C800001018
:10071000F00000100000F03F0000F0BF9A99999996
:100720009999E93F700100109999E9BFF80000100C
:100730009999B93FD0000010E00000109999B9BF15
:1007400048020010E8020010CDCC4C3FB801001068
:10075000010300006F12833A0024744988030010DB
:10076000D0030010F00400106666663F0801001018
:100770000C010010FCA9F1D24D62403F70656E3A49
:1007800025642073706565643A25322E32662070C8
:100790006C6163653A253266200D0A000AD7A33DD5
:1007A000CDCC4C3E702B0000000000002121000049
:1007B000740B00007C110000E500001028470000C9
:1007C0009D220000A4160000A8170000E8010010F8
:1007D0008121000020270000242800005429000067
:1007E0004D24000044250000843000004C06000029
:1007F000F51F000004460A4A0A4901F0B4FE012030
:100800003021831E084A009101900849084800F0F1
:100810006BF90446024A034901F0A5FE0DB030BD54
:1008200000000000091D0000843000004C0600009C
:10083000F004001070B504460E46251D00206060CF
:10084000A060E06020613146284602F0B3FD00BFA1
:100850002C1F2046143001F00DFD0446143C2546A3
:100860004435284601F006FD054631482C46443CF7
:100870002860204670BD01607047F8B504460D46FB
:10088000164625602B48009621460CC82046143099
:1008900003F090FBF8BD10B504462046143001F07B
:1008A000D1FC10BD38B504462068002804DC0021C6
:1008B000201D01F04AFA0CE00121201D01F045FA4B
:1008C000206800901C4821460CC82046443003F0A4
:1008D00071FB38BD10B504460021201D01F035FA2A
:1008E00010BD70B504460E4600BF0020205E401CBF
:1008F00004D12122114912A002F0B6FE00BF00204F
:10090000205E0F21090208400512002E07D0E06882
:1009100000680121A9400843E168086006E0E0683A
:1009200000680121A9408843E168086070BD0000AB
:100930003C470000F83F0000F03F0000004000008E
:100940006F626A2D3E70696E20213D202850696ECD
:100950004E616D65294E4300FEB504460E467F216B
:10096000C905304600F092FC01D27F26F6055349B6
:10097000304600F081FC00D2504E942006510021F8
:10098000304600F083FC0AD201212046743001F089
:10099000DCF900212046843001F0D7F909E000217C
:1009A0002046743001F0D1F901212046843001F055
:1009B000CCF99C200159304600F0B0FA054600BF42
:1009C0006800400800BF009098200159009800F08E
:1009D000A5FA019000F0A6FB074639462046FFF72E
:1009E0004AFFFEBDF8B504460D463549284600F0DD
:1009F00095FA074600F096FB064600F073FB982137
:100A00000851085900F08EFB064632460021204668
:100A1000FFF733FFF8BDF8B504460F4615461E46EE
:100A200031462046FFF706FF04463946204674301B
:100A300001F07DF90446743C29462046843001F0DB
:100A400076F90446843C1F499C2001511E492046EA
:100A5000FFF7C8FF00212046FFF77EFF2046F8BDC4
:100A60009C2211507047014694204058704770B541
:100A700004460E4600BF0020205E401C04D1212207
:100A8000124913A002F0F0FD00BF0020205E0F21EC
:100A9000090208400512002E07D0E0680068012115
:100AA000A9400843E168086006E0E06800680121A9
:100AB000A9408843E168086070BD0000000080BF65
:100AC000002474499A99993E6F12033A44400000F9
:100AD0006F626A2D3E70696E20213D202850696E3C
:100AE0004E616D65294E4300FFB583B0044616463E
:100AF0001D460D9F201D049901F0CEF9041F3146BB
:100B000020465C3001F0C8F904465C3C294620468A
:100B1000B43001F0C1F90446B43C0021FF20193083
:100B20000151001D0151FF210D310C980851277012
:100B3000201D01F09BF9029020465C3001F096F9EF
:100B400001900298400001990843FF211531085196
:100B500008460159001F01515F4821460CC8201D5D
:100B600003F0BBF95D4821460CC8201D03F0A4F931
:100B7000012F0DD1584821460CC820465C3003F0A7
:100B8000ACF9564821460CC820465C3003F094F975
:100B9000681C06D0524821460CC82046B43003F0E9
:100BA0009CF9204607B0F0BD0022FF2119310A5000
:100BB000091D0A5070470146FF2015304058704704
:100BC0000146FF201930405870470146FF201D3074
:100BD00040587047F8B504460025201D01F046F93D
:100BE000064620465C3001F041F907467000384364
:100BF000FF21153108512078002835D1081F0059F0
:100C0000032803D108460059002809D0FF201130DD
:100C1000005900280CD1FF2015300059032807D1B6
:100C2000FF2019300059401CFF211931085145E0BF
:100C3000FF2011300059022804D1FF20153000593F
:100C4000012809D0FF2011300059012836D1FF209A
:100C500015300059022831D1FF2019300059401EAB
:100C6000FF211931085129E02078012826D1FF20E1
:100C700015300059FF2111310959484003281DD072
:100C8000FF2015300159001F0059814216D0FF2066
:100C90001130005DC007C00FFF2115310959022234
:100CA0001140491048400546002D00D1451EFF2047
:100CB00019300059411BFF2019300151FF20153018
:100CC0000159001F0151F8BDFF211D310958491C70
:100CD000FF221D32115070478840000090400000F4
:100CE0009840000003460B439B0703D009E008C966
:100CF000121F08C0042AFAD203E00B78491C0370C3
:100D0000401C521EF9D27047D2B201E00270401C62
:100D1000491EFBD270470022F6E710B513460A467B
:100D200004461946FFF7F0FF204610BD421C01782B
:100D3000401C0029FBD1801A704710B5002200E04A
:100D4000521C835C8C5CA34201D1002BF8D1D8B239
:100D5000E1B2401A10BD30B505460020034600E060
:100D60005B1C934205D2EC5CC85C201A01D1002CBC
:100D7000F6D130BD0FB400B58DB009900B9010A91D
:100D800000200091C0430A9000200C900648069075
:100D9000064807906A4609A80F9900F0DBFA0DB0E3
:100DA00008BC04B01847000075130000951300003C
:100DB000FFB50027FF4383B000205C6801909E6868
:100DC0001D46A9697F1C049888470090296A8847B6
:100DD0000028F6D10098401C0CD003204002844328
:100DE000002E19DD600614D500982B2809D02D2877
:100DF0000FD103E00020C04307B0F0BD0120800206
:100E00000443A9697F1C04988847761E0090002E31
:100E100002DD0098302803D00598002825D035E061
:100E2000012040020443761EA9697F1C049888476C
:100E30000090002E03DD782805D0582803D00598AF
:100E4000002810D022E00598002801D010281DD1DC
:100E5000012040028443761EA9697F1C04988847BC
:100E60000090102002E0082000E00A2005900DE02C
:100E7000012149020C43059A0199761E5143081835
:100E80000190A9697F1C049888470090002E05DD19
:100E90000599009800F049FA0028E9DAE969049810
:100EA0008847A00502D40120C043A5E7E00722D16E
:100EB000600611D56005019800D5404229680A1DD9
:100EC0002A600968220501D5087014E0220701D5BF
:100ED000088010E008600EE02868011D29600068A5
:100EE000210502D50199017005E02107019901D57D
:100EF000018000E0016038467EE7000070B5054CD7
:100F0000054D03E0206800198047241DAC42F9D14B
:100F100070BD0000B4470000B8470000024670B53D
:100F20004A40D30FDB0740002DD04A002AD0010EE3
:100F3000140E091900021202400A520A8418E5012F
:100F400004465443000A120A2E045043A4194219BD
:100F5000200CC543AA18120C01257F39521CAD0381
:100F600052191204240400D0521C104301D4400032
:100F7000491EC2B20C06C0092018401C4008802A35
:100F800002D003E0002070BD40084000002900DAD4
:100F90000020184370BD70B502464A40D50F40008E
:100FA0004A00ED0740085208002814D0002A12D049
:100FB000C40DD30D41020120C0055202490A520A54
:100FC000E41A091812187D34914201D3641C00E020
:100FD0004900002C01DA002070BD0023914201D3AA
:100FE000891A0343400849000028F7D100290AD094
:100FF000914202D10121C90705E0914201D20121AC
:1010000001E00121C943E005C018401900F0EEF9E4
:1010100070BD0000F0B51FB488B00B99099800248A
:1010200048400999C00F490049080991C0070B9928
:101030000090490049080B9109990898A646084371
:1010400003D00B990A98084303D1002001460DB044
:10105000F0BD099801244000420D4800410D099857
:1010600024050003000B204309900B980003000B9C
:1010700020430B9050181A49401800220190144642
:10108000104601E0032801DA034600E003239C46F2
:10109000C11A0AAE0AE05F0008ADED5B4F00F75BD6
:1010A0007D430027AA187C415B1E491C6145F2DD87
:1010B000410004AB5A522104120C0A43240C401C78
:1010C0000828DFDB0198029000997046019100909A
:1010D000059B049A0799069800F0D7F9B7E7000036
:1010E0000DFCFFFFC217C10F504010B54018CA07D2
:1010F0009623002100F082F910BD00000EB5C21742
:10110000C10F5040CA0740180021054B02930192BD
:1011100000910A460B4600F0B8F903B000BD00008C
:1011200033040000C20F410040020123400ADB05E6
:10113000D207090EC0187F2901DA002070479629CE
:1011400003DC9623591AC84001E096398840002AEA
:10115000F4D040427047410040020122400AD205CB
:10116000090E80187F2901DA00207047962903DCD8
:101170009622511AC840704796398840704700003F
:1011800070B5CD0F4A0009030123090B1B05194354
:101190000B4BED070024520D9A4201DA002070BD7E
:1011A000074B34339A4203DC9A1A00F0ADF802E0A0
:1011B0000449511888402C43F1D0404270BD0000D2
:1011C000FF030000CDFBFFFFC20FD2074000400825
:1011D0000BD0C10D0723DB01C91840020905400AE5
:1011E0001143C20840071143704700200146704771
:1011F00010B5002904DB0124E40740428C4121465C
:10120000002B04DB1C460123DB075242A3418B4227
:1012100000D1824210BD000010B5002904DB01247A
:10122000E40740428C412146002B04DB1C4601238D
:10123000DB075242A341994200D1904210BD000009
:10124000CB0FDB07490010B5490802460A4307D017
:101250000A0D07240903E401090B121B002A01DC13
:10126000002010BDC900440F0C43C100E018D20596
:10127000801800F0BBF810BD0122D207002800DB67
:10128000101A002900DB511A814270470122D2074F
:10129000002800DB101A002900DB511A8842704731
:1012A00010B500F08FFA10BDF0B51FB4064600204F
:1012B00082B005464024019100901BE0019922462E
:1012C0000F46304600F020F8049A059B801A994199
:1012D00010D310461946224600F094FA361A8F4170
:1012E0000197224601200021009F00F08BFA381858
:1012F0004D4100902046641E0028DFDC019B0098D1
:101300002946324607B0F0BD10B5202A04DB084656
:10131000203AD040002110BD0B46D340D0402024BD
:10132000A21A91400843194610BD3A2800D230381D
:10133000202302469A43412A01D310463738884277
:1013400001D30020C0437047026813785118016030
:101350001846704710B5D1600449516104491162C3
:1013600000211161114600F077FA10BD4913000009
:101370004B1800004268002A08D001680B78491C0D
:10138000002B03D0521E06C0184670470121C160D1
:10139000881E70474268002A0BD0C3680168002B82
:1013A00007D183688B4204D0491E521C06C000201E
:1013B00070470020C0437047004870475801001034
:1013C00070470000004870475C010010092070471A
:1013D000092070477047704709207047024801464E
:1013E0004860001D7047000060010010002904DA09
:1013F000401C490001D140084000704770B40024EF
:10140000050C05D11024000402D1002922D011249A
:10141000050E01D108340002050F01D1241D000181
:10142000850F01D1A41C8000002801DB641C400052
:10143000002908D020252E1B0D46F540A14000D0E4
:101440000121294308431B1B0106DB1D000A002B59
:1014500002DA002070BC7047DB05181880180029DC
:10146000F8DA401C4900F5D170BC400840007047D4
:1014700010B5002B08DA0024401C614192185B4132
:101480001A4301D14008400010BDF0B51FB482B02E
:1014900005460C0003D0084601F04EF802E001F0CA
:1014A0004BF82030024600902146284600F0AAF969
:1014B000049B059A04460F4618431143084303D181
:1014C0002046394607B0F0BD1846104317D00098A3
:1014D00040210A1A18460599FFF716FF05460E46E1
:1014E000009A0599049800F08DF9084301D0012075
:1014F00000E00020C11705430E432C4337430099F9
:101500000E986305401A7905E40A0A3000220C435C
:10151000FD0A002802DA00200146D3E70105101970
:1015200069410C9C0D9D00196941FFF7A1FFC9E7B6
:10153000F0B507460846584087B0C00F04904800F1
:101540000E46590040084908BC1A884105D2384661
:1015500031461E4617460B460246580040081043C7
:1015600003D13846314607B0F0BD300D0390400539
:101570005900400D490D0590401A029040286DDA3F
:1015800018030121000B09050843019004980092FB
:10159000002805D001995242002088410092019014
:1015A000029840210A1A0199009800F02BF905468B
:1015B0000C46684607C800F035F9C0197141039A16
:1015C0000E0D0023D71756401A467A40164340D0D6
:1015D000049A002A29D0029A012A039A11DC1205E2
:1015E000C01A914101263605001C7141D20F059E9B
:1015F000D2070093019202962A462346FFF745FF41
:10160000B1E71605224A0F46B218C01AB7410121A8
:101610000905001C4F4100187F41114618187941F7
:10162000E20F10436D19644113E0E2076D081543A2
:101630006408C2071443039A01261205C01A914197
:101640003605001C7141CE07400830434908C018D8
:1016500051412A462346FFF70BFF84E704980122F5
:101660004000C117121A00238B4104983146C41759
:10167000381AA141EFE730B40124E407634030BCDD
:1016800056E730B40124E407614030BC50E7000065
:101690000000E0FFF0B50C465C4085B0E40FE407C5
:1016A00003944C00002664085900944649080246F9
:1016B0000296224321D062460A431ED06200570D93
:1016C0004A000E032303550D012402462C4924052C
:1016D000781B1B0B360B40182343264361460090B2
:1016E0001C46501AB44103D30098401C009002E0FD
:1016F000921800985B41002803DA0020014605B0EB
:10170000F0BD0020012109050746864611E0644628
:101710001D46141BB54106D36546521BB3417446A2
:1017200007430C43A646CD074008490828439218B2
:101730005B4105460D43EAD11046184313D060467D
:10174000194650407140084303D100220123DB07B2
:1017500009E06046101AB34102D20122002302E0E0
:101760000122D2435310009874460105381C614190
:10177000029C039D00196941FFF77AFEBFE7000054
:10178000FD0300004A0009030123090B1B0519434F
:101790000A4B10B5520D9A4202DA0020014610BDE4
:1017A000064B34339A4203DC9A1AFFF7ADFD10BDA5
:1017B000034BD21800F026F810BD0000FF03000014
:1017C000CDFBFFFF10B500F0E4F90169002903D05B
:1017D00000220261884701E080688047C046C04619
:1017E000064C0125064E05E02046E36807C82B435A
:1017F00098471034B442F7D3FEF706FD9447000033
:10180000B447000010B5202A04DB0146203A91407D
:10181000002010BD914020239C1A0346E340194349
:10182000904010BD10B5202A06DBCB170846203AA1
:101830001041C1170B4306E00B461341D040202452
:10184000A21A91400843194610BD10B50F21C0B22D
:10185000490200F0C5F910BDF3B58DB000200A9023
:1018600001200B90002608460C300C460990626956
:1018700001210998904705002ED0252D2DD0216AF1
:101880008847002818D06269012109989047216A89
:1018900088470028F7D1411E62690998904700E007
:1018A000761CA1690D988847216A88470028F7D1DE
:1018B000E1690D988847DAE7A1690D9888470746DE
:1018C000A84201D1761CD2E7E1690D9888477F1CB8
:1018D00002D10A98002877D046E1002762693D4688
:1018E0003946099890472A280CD162690121099844
:1018F0009047012506E00A214F433F18303FEBD4C3
:10190000102005436269012109989047014630394A
:101910000A2903D29A498F42DEDCECE7E90600D4BB
:10192000984F6C280AD04C2810D0682824D06A28F8
:101930002ED074280CD07A280AD00DE062690121DB
:10194000099890476C2823D004211CE020200543EF
:101950006269012109989047A760656065284FD0AA
:1019600026DC582839D01ADC452849D012DC252835
:1019700034D04128B0D143E06269012109989047F1
:10198000682802D008210D43E6E70120C002DEE707
:101990000220DCE7462833D047282CD130E05B28F2
:1019A0007BD061282CD0632877D0642823D15EE0D7
:1019B0006F284CD009DC662822D0672820D06928FF
:1019C00026D06E2817D12EE0CAE070284AD073289E
:1019D0006CD075284BD078280DD150E0A1690D98B6
:1019E00088470546252800D16CE7E1690D988847AE
:1019F0006D1C00D16DE7B7E00A2248E00A224FE0F3
:101A0000012023466A46C0430D99C046C046A0E067
:101A10002846402108436060A807234601D50022DC
:101A200035E000223CE02068011D216000682905A6
:101A300001D506701BE7290701D5068017E7A9071E
:101A400003D5F1170660416011E706600FE72846ED
:101A5000402108436060A807234601D5082216E00C
:101A600008221DE0484928460840606016E02846E4
:101A7000402108436060A8072346BFD5BCE728463D
:101A8000402108436060A80708D5234610220120A2
:101A9000C0430D99C046C0465BE007E023461022D4
:101AA0000120C0430D99FFF783F952E000210C910A
:101AB0000B460091632802D05B2807D043E0E8067C
:101AC00001D40120A060012000903CE06269012166
:101AD000099890475E2805D101200C900146626963
:101AE000099890472169002906D10B4601AA8F0069
:101AF000491CD3510829FADB002835D02169002977
:101B00000ED1C117C90E09184A11930001AA9A18DB
:101B100049094901411A01201368884003431360B1
:101B200062690121099890475D28E5D10C98002849
:101B300008D0002001AB81005A58401CD2435A50B3
:101B40000828F8DB01AB01202246C0430D99C046AE
:101B5000C04600280ADA401C06D10B98002803D0A2
:101B60000020C0430FB0F0BD0A98FBE7E90702D19F
:101B70000A99491C0A91361800200B9077E600005C
:101B8000CCCCCC0CFFFFFF7FF1F7FFFF10B5C046B8
:101B9000C04670B5FFF722FC04680546002C15D13D
:101BA000202001F02BFD040012D02C600949616057
:101BB000002020600849A16020732061074960610E
:101BC000A061002901D000F01DF8E061204670BD41
:101BD000C046C046000000008D1B00000000000051
:101BE0007F2801D9002207E0054B42089A5CC00714
:101BF00000D112091207120F0120904008407047CF
:101C0000C045000010B5882001F0F8FC002801D084
:101C10000021017010BD802904D8002802D001786D
:101C2000002901D000207047012101700830704761
:101C3000002803D002460832914201D000207047AC
:101C400000210170704710B501F001FE01F0FEFDAA
:101C5000FEF723FC10BD10B5002100F060F910BDA7
:101C6000F0B484460E48026893070E4A9B0F17682B
:101C7000012B0ED000252B463A469C002E591651BA
:101C800066197668A41866609B1C302BF5DB012270
:101C9000026060468000C0190164F0BC704700001B
:101CA000008004402801001070B413480024046030
:101CB00001234360446043604168C907FCD00F4979
:101CC00023228A600E4A956B8026B5439563CA68C5
:101CD000D207FCD003210163436344634363416B38
:101CE000C907FCD08363074801680122120411432D
:101CF000016070BC704700004080044000800440D8
:101D0000008204408080044010B504462046B43070
:101D100000F0E8F80446B43C583800F0E3F8044614
:101D20005C3C583800F0DEF8041F204610BD70B54A
:101D300004460D46002020606060A060E0602946F7
:101D4000204601F037FB204670BD70B504460D46B5
:101D500000BF29462046FEF7C4FD00BF204670BDE7
:101D600070B4084901600021074A10230D468C0019
:101D70001659864200D11551491C5B1EF7D170BC23
:101D800070470000084600001006001010B50C4611
:101D9000001D01F08DFF204610BD1C22514310B5DF
:101DA00008180C3000F0AAF810BD000070B50E46FF
:101DB0000E490160002141608160154602231C220A
:101DC0000B490C3000F0E5FB04464B200C3CC001F5
:101DD00060642A463146201D01F0F6FE2246054980
:101DE000201D01F05BFF204670BD0000344600005E
:101DF000571C00009B1D000001688968084710B54A
:101E00000246001D01F098FF10BD10B5001D01F045
:101E1000FFFF10BD10B5044605482060002060603B
:101E2000A060E060034802F013F8204610BD0000F7
:101E300044460000F91D000010B504460348206028
:101E4000201D01F0E5FF204610BD000044460000C3
:101E500010B5002906D0012905D0022902D13C3055
:101E600000F04CF810BD2030FAE7000010B5044631
:101E70000420205E401C04D12A220549054801F0B7
:101E8000F3FBA0680068002800D0012010BD00000E
:101E9000DC430000C443000070B50D460F490160EB
:101EA000002141608160C160016141618161C16166
:101EB000203000F034F800211C3000F030F83C38BD
:101EC00004460346064A2946143001F0B5FA29466D
:101ED000201D01F05DFA204670BD0000584600004C
:101EE000511E000010B504460348206020461430FF
:101EF00001F09AFA204610BD5846000001680029FA
:101F000000D008474368002B04D00146826908319D
:101F10001846104770470160002141607047002259
:101F2000426082610160704710B50021C046C04622
:101F300010BD70B50D4606460024A000801940680B
:101F4000002802D0294601F0FEFA641C102CF4DBB4
:101F500070BD0000F0B589B09E4694460446244802
:101F60000F9F109E139D199B0E9A2060684601805A
:101F70006146418071468180C28007814681119906
:101F800081811299C18105821499418215998182BA
:101F90001699C182179901831899418383831A99ED
:101FA000C183002005466E4660646F00F05F401CF0
:101FB0000CD0102000F06EFA0890F15F0022026051
:101FC00042608260C26001F0E3F90898A900091933
:101FD0004860F05F401C04D00120616CA8400143C0
:101FE00061646D1C102DE0DB204609B0F0BD0000DF
:101FF0006846000070B50546074800242860A00028
:1020000040194068002801D000F03FFA641C102CF1
:10201000F5DB284670BD000068460000F3B581B0CE
:1020200007460025A800C0194468002C1ED002985D
:102030002841C6070020205EF60F401C04D1212253
:102040000D490E4801F010FB20880005000F002EFE
:1020500006D0E1680B680122824013430B6005E063
:10206000E2681368012181408B4313606D1C102DC1
:10207000D8DB03B0F0BD00000C430000F4420000C8
:10208000F0B589B09E469446044624480F9F109EA2
:10209000139D199B0E9A206068460180614641801D
:1020A00071468180C2800781468111998181129990
:1020B000C181058214994182159981821699C18244
:1020C000179901831899418383831A99C18300204A
:1020D00005466E4660646F00F05F401C0CD0102017
:1020E00000F0D8F90890F15F00220260426082603F
:1020F000C26001F05FF90898A90009194860F05F13
:10210000401C04D00120616CA840014361646D1C37
:10211000102DE0DB204609B0F0BD0000784600003D
:1021200070B50546074800242860A00040194068A3
:10213000002801D000F0A9F9641C102CF5DB28461A
:1021400070BD00007846000010B50446FFF766FF3A
:10215000204610BD10B51C46FFF728FE214648302A
:1021600000F02EF84838034901600349C16403496F
:10217000816410BD88460000D4460000A0460000DF
:1021800010B5483000F03EF8483810BD00207047C8
:102190000020704700207047F8B58E180D4607469E
:1021A0000C46B14209D038682178426A641C38462E
:1021B0009047401C01D0B442F5D1601BF8BD00002F
:1021C00010B584B000F0D6F804460A4820600A48EA
:1021D000606000206061224608A1684600F08CF92A
:1021E00007A1684600F01FFA6061FFF79DFE2046D8
:1021F00004B010BDE4460000184700003A25700006
:10220000772B000010B50446054820600548606043
:10221000606900F003FA204600F0BEF810BD00002F
:10222000E44600001847000070B50D460446FFF76D
:10223000ECFD256101F0BEFD216941182046FFF744
:10224000DEFD70BD10B50446FFF7DFFD204600211E
:102250001430FFF760FE10BD10B5044640682169D8
:1022600041182046FFF7CBFD20461430FFF746FE0D
:1022700010BD000010B504462046FFF7CBFD044614
:1022800005480021206020461430FFF748FE044630
:10229000143C204610BD00002847000010B504463D
:1022A000064820602046FFF7B0FD2046002114308C
:1022B000FFF731FE2046FFF7BFFD10BD28470000A5
:1022C00010B51430FFF71AFE10BD70B504460D4668
:1022D0002946204600F022FF204670BD007B704753
:1022E00070B506460C480D460468002C12D0A06854
:1022F00000280CD02A463146FEF72DFD002806D1D5
:10230000A068FEF713FDA84201D1204670BD6468A5
:10231000002CECD1002070BD4C010010064B036076
:102320000023436081600273002903D003490A68D7
:102330004260086070470000504700004C010010E8
:102340000A4901608168002905D0094A1168814263
:1023500002D14168116070474A68824203D0114639
:1023600052688242FBD142684A6070475047000081
:102370004C01001010B5054A04C00022FFF7CEFF43
:10238000001F034901600349416010BD0846000079
:10239000604700008C47000010B5001DFFF7D0FF1C
:1023A000001FFFF7DDFC10BD10B504464068002893
:1023B00003D0FFF793FF012801D0002010BD606813
:1023C00010BD10B504464068002803D0FFF786FF13
:1023D000002801D0002010BD60680028FBD0001F3D
:1023E00010BD4068002800D00120704710B540683B
:1023F000002804D0FFF772FF002801D0002010BD94
:10240000012010BD0068704710B504460020206010
:10241000606008782F280FD1487800280CD04B1C1A
:1024200000211A46236010782F2807D0002807D0F3
:10243000491C521C2260F6E7204610BD501C20604B
:102440001846FFF74DFF6060204610BD70B504468A
:102450002546264644363046FFF720FF0546443DD4
:102460003038FFF71BFF0446143C204670BD70B5A2
:1024700004460D4629462046FEF76EFA204670BDFA
:1024800010B54838FFF782FC10BD10B500F0F0FE23
:1024900010BD000010B5040008D1012406E0FEF7CD
:1024A00091FF0068002800D103488047204601F0D2
:1024B000A5F80028F3D010BDA11200000FB410B58C
:1024C000024604A9034B039800F09CF910BC08BC19
:1024D00004B01847590200000FB410B503A9044B0B
:1024E000044A029800F08EF910BC08BC04B01847EA
:1024F00059020000F80600100FB410B504A9074BEC
:1025000002AA039800F07EF9044602A9002000F018
:102510001BFD204610BC08BC04B01847492F000022
:1025200070B514460D460246024B2146284600F07F
:1025300069F970BD590200002021020C01D0102160
:102540001046020A01D008391046020901D0091FBD
:102550001046820801D0891E1046420801D0881E0C
:102560007047081A7047F7B507460E460025102039
:1025700001F044F804000AD06760A6600298E060A9
:10258000FEF71AFF0168216004602846FEBD0125A0
:10259000FBE7FFB581B01C4617460E0006D0019D33
:1025A00002E02846B047ED19641EFAD2019805B042
:1025B000F0BDF8B50646FEF7FFFE009015E0002ED0
:1025C00004D0E068B04201D025460FE020682860C2
:1025D0000098A168076860688847204600F048FEB8
:1025E00000980068B84201D0009805462C68002C7D
:1025F000E5D1F8BD10B50020C046C04610BD02E0D0
:1026000008C8121F08C1002AFAD17047704700207D
:1026100001E001C1121F002AFBD1704710B500680C
:1026200000F098FC10BD70B506460D46142000F071
:10263000E5FF040008D01421FEF76DFB2246294671
:10264000304600F0AFF870BD002070BDF0B51FB48B
:1026500084B007980699020D01430FD10F98012409
:1026600049A3012807D004980F9A84600360C260D0
:10267000416009B0F0BD0E98C143F4E743484449B6
:102680001018484305140F9801280E980BD0281AEB
:10269000401C00243F4E40490094019102900028C4
:1026A00003DA474216E04042F3E7074612E0F80734
:1026B00007D02246334601990098FEF7ABFC019102
:1026C00000902246334610461946FEF7A3FC044606
:1026D0000E467F10002FEAD10298019B0028009A35
:1026E0000799069802DAFEF795FC01E0FEF7D2FFA3
:1026F00004460E460022294BFEF78EFD03D800202B
:10270000C043014607E00022254B20463146FEF734
:102710000FFFFFF737F8102409E0002C0ADB0A222C
:102720000023FEF7C1FD059B30321A55641E024698
:102730000A43F2D1641C1122059B121B1C190F9B2A
:10274000012B08D00123084302D10E9882420DDDEF
:1027500000236D1C0EE0084303D10E98151A6D1E60
:102760000AE011200E9000200F908CE7824201DADF
:1027700000236D1E002B86D004980F9945600460DD
:102780008260C16075E700003000000001FCFFFFBF
:10279000104D0000000024400000F03F0000F04316
:1027A0000000E03F70B50646106815460C4600284C
:1027B00001D000F0CFFB2078641C612808D072287B
:1027C00002D077281CD101E0002102E0042100E0C2
:1027D0000821022201232078002809D0641C2B281C
:1027E00002D062280CD101E01143F4E71943F2E76B
:1027F000304600F0D9FB411C02D02860284670BD4D
:10280000002070BDFFB597B0064600251FE22528C1
:1028100079D10024F9492746761C049432780120A6
:10282000203A904002460A4202D00443761CF5E763
:1028300030782A280ED00222307801463039092912
:1028400016D804990A235943303940181443761C8A
:102850000490F1E7189802C804911890002904DA4E
:102860000120400304434842049002200443761CA4
:1028700030782E2814D104200443761C30782A287E
:1028800009D11898761C80C8189009E00A214F4396
:10289000303FC719761C3078014630390929F5D9FF
:1028A00030786C2810D006DC4C281AD068280ED05E
:1028B0006A2817D104E0742813D07A2812D110E0C6
:1028C0000120400504430CE00121090501E003213A
:1028D00009050C437178814203D10120761C000563
:1028E0002418761C3078119066280BD013DC5828F9
:1028F0007ED009DC00287CD04528F6D04628F4D0CC
:1029000047281AD1AAE118E0632836D0642871D08C
:10291000652812D1A2E170286DD008DC6728F1D0BB
:1029200069287CD06E280DD06F2806D1BDE07328B1
:102930002FD0752872D078285AD01A9A19999047B2
:102940006D1C83E16002400F022809D003280DD0DE
:102950000428189801680DD0001D0D60189075E1CD
:102960001898EA1702C80D604A60F7E7189802C87D
:102970000D80F3E7001D0D70F0E718986A460178A6
:10298000001D117218900020507202A800900120C2
:1029900005E0189802C8189000200091C043610714
:1029A0000DD5002101E00199491C0191B94212DACB
:1029B0008142F8DB009A515C0029F4D10BE0002140
:1029C00001E00199491C01918142FADB019A0099C9
:1029D000895C0029F5D1019904981A9B471A214670
:1029E0003846199A00F09AFA0199401945180BE0F7
:1029F00051E030E113E050E0009800990078491C64
:102A000000911A9A199990470198401E0190401C14
:102A1000F2D1214638461A9B199A14E139E00A206E
:102A20000021009001916002410F022907D0189AFD
:102A300001CA1892C217944603290AD00CE01898CC
:102A4000C01DC108C9004A68086808319446189139
:102A500007E000B2C2179446042902D140B2C11760
:102A60008C4600226146944506DA0A46002140421F
:102A700091418C462D2102E0210504D52B216A4687
:102A80001173012103E0E10701D02021F7E7029152
:102A900051E00A200AE0102008E0102000900021F8
:102AA000042004430191082703E00820002101913C
:102AB00000906002410F022907D0189A01CA1892AB
:102AC0000022944603290AD00AE01898C01DC108C4
:102AD000C9004A68086808319446189103E080B23A
:102AE000042900D1C0B200210291210723D51199F8
:102AF000702928D0009A1021019B4A401A4309D11D
:102B00006146014306D030216A4611731199517311
:102B100002210291009A0821019B4A401A430AD1DE
:102B20006146014301D1610705D530216A46117321
:102B300001217F1E02911199582909D030A10E91CF
:102B40000DA90D9112E040216A4611730121E0E7C1
:102B500030A1F4E76146019B009AFEF7A5FB0E9BAE
:102B60008C469B5C0D9A521E0D9213706146014378
:102B7000F0D10D9805A9081A20300190600703D5FF
:102B800001200004844300E001270198874201DD11
:102B9000381A00E0002001990090411802980918A5
:102BA0000498401A0490E00306D421461A9B199A0F
:102BB000049800F0B3F94519002706E003A81A9A13
:102BC000C05D199990476D1C7F1C02988742F5DB08
:102BD000E0030CD521461A9B199A049800F09EF93F
:102BE000451904E01A9A3020199990476D1C0099F4
:102BF000481E00900029F5DC1FE0000009280100B4
:102C00003031323334353637383961626364656662
:102C10000000000030313233343536373839414224
:102C200043444546000000000D980D990078491C6A
:102C30000D911A9A199990476D1C0199481E01909F
:102C40000029F1DC4CE100F059F94519761C307887
:102C5000002800D0DBE528461BB0F0BD600700D49B
:102C600006271898C01DC108C90048680A680831BD
:102C7000C30FDB071891190001D09CA108E02105C2
:102C800001D59BA104E0E10701D09AA100E09AA13F
:102C9000430011985B08109165280CD006DC45288C
:102CA00009D046281DD0472841D141E0662818D0D8
:102CB00067283CD13CE00021112F01DB112000E00E
:102CC000781C0191009008A911A8FFF7BFFC139987
:102CD00005910021119A15927F1C1298019700917D
:102CE00050E00120C00703900120019008A900973F
:102CF00011A8FFF7ABFC139A149905920022119BBF
:102D0000009212981593059A0192002901D010465D
:102D100002E0791C40180190381A01D5019804E0AE
:102D20004042401E0090781C0190C01B029043E07E
:102D3000012F00DA01270021112F01DD112000E011
:102D400038460191009008A911A8FFF77FFC13995C
:102D50000591119A0021129815920091019721076F
:102D60000CD40599B94201DB019900E001910129D8
:102D700004DD159A491E515C302906D0B84201DAAB
:102D8000011D05DA0121029115E00199491EEDE7C7
:102D9000002805DC0099411800910199091A03E007
:102DA000019A411C914200DD01910099401A401C9A
:102DB00002900120C0070390200706D402990198D1
:102DC000814202DB0020C043029000206946C877A0
:102DD00007AF012103980337C907884224D0022096
:102DE00011902B201290039800280CDA4042039097
:102DF0002D20129007E00A210398FDF755FA303193
:102E00007F1E039039701199481E11900029F2DC41
:102E100003980028EFD1791E12980870307820218D
:102E200008404530BF1E387006A8C01BC01D039067
:102E300010980078002800D00120019941180298CC
:102E4000C0170918039809180498401A401E0490E6
:102E5000E00306D421461A9B199A049800F05EF804
:102E6000451910980078002803D01A9A19999047AC
:102E70006D1CE00323D521461A9B199A049800F093
:102E80004DF845191BE00098002807DB00990598CC
:102E9000884203DD1598405C199901E019993020AA
:102EA0001A9A904700986D1C401C00900298401E92
:102EB000029004D11A9A2E20199990476D1C0199FD
:102EC000481E01900029DEDC05E038781A9A7F1C44
:102ED000199990476D1C0399481E03900029F4DC52
:102EE00021461A9B199A0498ADE600002D000000B7
:102EF0002B0000002000000000000000F8B5044690
:102F000000251E461746880404D405E039462020D3
:102F1000B0476D1C641EF9D52846F8BDFFB50446C0
:102F2000002581B01E46C80301D5302700E02027C8
:102F3000880404D505E038460399B0476D1C641E2B
:102F4000F9D5284605B0F0BD0A68531C0B60107017
:102F500070470000032801DA00207047810007480D
:102F6000002209184039486B4A63002802D00168E2
:102F7000496808470020C043704700001006001051
:102F8000032801DA002070470649800040184038C5
:102F9000406B002802D00168496908470020C043FF
:102FA0007047000010060010F0B50E4683B00446CE
:102FB00032A1FDF7C2FE002809D0314F0025A8003C
:102FC0003858002809D06D1C102DF8D351E02D4938
:102FD0000868421C0A6003B0F0BD102D49D2207869
:102FE0003A2811D021466846FFF70EFA6846FFF7E7
:102FF000F8F900283DD06846FFF7F8F90028684640
:1030000009D0FFF7DEF92DE06A461FA12046FDF743
:10301000B1FE009826E0FFF7C7F9002829D0B107D4
:1030200001D5022408E0710701D5012404E031072D
:1030300001D5092400E000243107890F02D00121C5
:1030400049020C43710702D5012189020C4326462F
:1030500004466846FFF7D6F9014620683246836881
:1030600020469847002804D0A9007850E81C03B0F7
:10307000F0BD0020C04303B0F0BD00003A747400FE
:1030800010060010240100103A257000032801DA10
:1030900000207047064A800080184038406B0028A6
:1030A00003D002681369002218470020C04370470C
:1030B0001006001070B514460E46032814DA1248A4
:1030C0000068002804D1114A1149124800F07CFD23
:1030D0000025002C06D9715D0E4800F0E9FD6D1C3D
:1030E000A542F8D320460AE00B498000401840383A
:1030F000406B002805D001680B6831469847201ABC
:1031000070BD0020C04370BD38010010A41600003F
:10311000A8170000400100101006001070B50C4602
:1031200005461349204600F0FBFB28701148816BCF
:1031300010229143816310480168520211430160DB
:103140000E49E0B2401801688022914301600C48AA
:103150000C4900684A1E8018FDF7BCF8401E0A4959
:10316000000208600249204600F008FC70BD000023
:103170002841000000820440808004400040044058
:103180002C01001020AA440000C00140F0B42949DD
:103190000A68120A12020A600A68047801273B468C
:1031A000A3401A430A600A683B061A430A604A6849
:1031B000002AFCDA0C689C430C6012040C68920D27
:1031C000240A24020C600D6806783C46B44025436E
:1031D0000D600C681C430C604C68002CFCDA0D6818
:1031E0009D430D6024040D68A40D2D0A2D020D6071
:1031F0000D68007887403D430D60086818430860FB
:1032000048680028FCDA0D689D430D600004800DBD
:10321000A24202D9114622460C46844200D90446F5
:10322000A24200D91446A001A105F0BC890E0843B2
:103230007047000000C001400FB410B503AA034856
:103240000299FFF76DF9012000F002F80C07001059
:1032500004460548FDF715F80448FDF712F8002C60
:1032600001D000F029FAFEE7F80600100C07001064
:1032700010B5002823D0124B001F0022196803E06C
:10328000814203D80A4649680029F9D1002A0AD0A8
:103290001368841A9C4204D1006818181060104604
:1032A00002E0506000E01860002907D002680B1AA5
:1032B000934203D10B68D21802604968416010BD87
:1032C0006801001070B504460020205E0D46401CC9
:1032D00004D138220B490CA000F0C6F92088000563
:1032E000020F0120002D07D0012D04D1A1680B6829
:1032F000904003430B6070BDA1680B68904083430E
:10330000F8E70000E84400006F626A2D3E70696EC5
:1033100020213D202850696E4E616D65294E430085
:1033200070B505460180481C29D00804000F05220D
:1033300000041207861800200C460C290CD01049F6
:103340008C4209D00F498C4206D00F498C4203D0E1
:103350002521C9018C4200D101200146204600F000
:1033600077FA2005000F01218140880080196860EC
:103370000120C0033018A86004483018E86070BD10
:10338000740B0000781000007C110000FC3F00006E
:1033900070B5012605460C46FFF7C2FF611C07D039
:1033A00000212846FFF78EFF3146284600F0CBF873
:1033B00070BD000070B50D4604460026FFF7B0FF53
:1033C0006D1C18D0A05F401C04D121220A490B4873
:1033D00000F04AF920880005010FE0680268012327
:1033E0008B409A43026001212046FFF76BFF314674
:1033F000204600F0A8F870BD644400004C44000072
:1034000010B5002000F0A6F810BD10B5012000F0A6
:10341000A1F810BD10B5022000F09CF810BD10B549
:10342000032000F097F810BD00680021014A8000D9
:103430001150704750060010FFB507460C461C4857
:1034400081B0491C1DD01B49BC800A6021041A4E62
:103450000D0F18D0012D1DD0022D22D0032D10D11B
:1034600016491C20FEF7FCFB300530600C2045435C
:103470002005000F2818124B8200049999503860DB
:10348000002005B0F0BD0F491F20FEF7E9FB012029
:10349000C007EAE70C491E20FEF7E2FB0120800787
:1034A000E3E70A491D20FEF7DBFB01204007DCE7CC
:1034B000FFFFFFFF3001001000E100E01F340000BB
:1034C00050060010013400000B34000015340000D9
:1034D00010B4838805241804000F00042407001981
:1034E0001B051C0F0123A3400124E4030019C46938
:1034F0001C43C46144689C43446004691C4214D06A
:10350000002A03D081681943816007E082689A43EA
:1035100082600129C16806D01943C160016919435D
:10352000016110BC70479943F7E784689C4384604D
:103530000129C16805D09943C160002AEED110BCB1
:1035400070471943F8E710B502460020105E00F0FE
:10355000A3F910BD052270B5010412078B180121D3
:10356000C9035C18A1691F4A491E0D464908154048
:10357000114069181C4A0D46890815401140691808
:103580001A4A0D460909154011406918184A0D4696
:10359000090A1540114069188AB2090C51180C2209
:1035A0005043A5690818A168134A0D4211491268D1
:1035B0000BD0FF25AD015B19DB6BA5692B4208D150
:1035C0000BE09047A069E06170BDA369E5682B42FC
:1035D00003D0800008580121F3E780000858022139
:1035E000EFE7000055555555333333330F0F0F0FA9
:1035F000FF00FF005006001030010010F0B50B3046
:10360000C108C900144F0026144A0FE003688B421A
:103610000BD38B4205D95C1A431845685D601C606A
:1036200000E04368136002C004E0021D1068002837
:10363000ECD13046002803D13868002801D00020A2
:10364000F0BD064A06481060064A121AD208D20097
:1036500044C001203860D7E76C01001068010010F9
:10366000240700102007001008B500920B46024600
:1036700003A11048FEF722FF00F01EF808BD00006D
:103680006D626564206173736572746174696F6ED5
:10369000206661696C65643A2025732C2066696C2C
:1036A000653A2025732C206C696E65202564200AFC
:1036B000000000000C07001090B072B6AD24640149
:1036C00021466846FFF776FE75252D01294604A898
:1036D000FFF770FE214608A8FFF76CFE29460CA8EC
:1036E000FFF768FE012569460020085E401C04D1F2
:1036F000212254495448FFF7B7FF694608880399C7
:1037000000050968000F2A468240039811430160B2
:1037100069461020085E401C04D1212249494A48CC
:10372000FFF7A2FF6846008A079900050968000FA5
:103730002A46824007989143016068462021415EF5
:10374000491C04D121223F493F48FFF78DFF6846BD
:10375000008C0B9900050968000F2A4682400B98DF
:103760009143016068463021415E491C04D1212209
:1037700034493548FFF778FF6846008E0F990005F9
:103780000968000F2A4682400F9811430160962075
:1037900000F084FB68460021415E491C04D12122CF
:1037A00028492948FFF760FF68460088039900050B
:1037B0000968000F2A4682400398914301606846D9
:1037C0001021415E491C04D121221E491E48FFF7E9
:1037D0004BFF6846008A079900050968000F2A46D2
:1037E0008240079811432C46016068462021415EC3
:1037F000491C04D1212213491348FFF735FF6846BD
:10380000008C0B9900050968000F224682400B9836
:103810001143016068463021415E491C04D12122D8
:1038200008490948FFF720FF6846008E0F990005F8
:103830000968000F84400F98A1430160962000F0B2
:103840002DFB50E7B8400000A040000070477047D3
:1038500070B504460D46401C04D11522074908A046
:10386000FFF702FF0B49E0B2401801686A07C90878
:10387000C900520F1143016070BD000054450000A3
:1038800070696E20213D202850696E4E616D65295A
:103890004E4300000040044070B504460D46401CF5
:1038A00004D11E220A490BA0FFF7DEFE69070E4A6B
:1038B000E0B2C90F83181A6818208243A807C00E07
:1038C000104301229202904389020143196070BDA6
:1038D0005445000070696E20213D202850696E4ECD
:1038E000616D65294E43000000400440884202D0CB
:1038F000421C01D10846704710B5491C04D003A0F2
:10390000FFF79AFC0020C04310BD000070696E6D87
:103910006170206D69732D6D617463680000000033
:10392000002210B5D243431C0BD00023CB5E5B1C9E
:103930000ED00023CB5E834205D14C68601C08D0BA
:103940000AE0104610BD0C310023CB5E5B1CF0D1A9
:10395000144602A0FFF770FC204610BD70696E6D22
:103960006170206E6F7420666F756E6420666F7272
:10397000207065726970686572616C0010B50446EC
:10398000401C0FD00020085E401C11D00020085EB3
:10399000A04208D189682046FFF75AFF002120463F
:1039A000FFF77AFF10BD0C310020085E401CEDD1FE
:1039B00001A0FFF741FC10BD636F756C64206E6F52
:1039C000742070696E6F757400000000F3B5434990
:1039D0008BB0012088614248006801900C98010179
:1039E0000198FCF761FC80B206900020099001204C
:1039F00000270790002953D00C980124002504903B
:103A000002E00025002C45D90198604340000ED506
:103A10000C9829194143019A60005043FCF744FC7B
:103A20000009C1030120C0030818060C0DE00C9822
:103A300029194143019AA0005043FCF735FC400985
:103A4000C1030120C0030818060C002E00D1012676
:103A5000002D02D0022E00D2022628197043C10088
:103A600001986043FCF720FC401C0C994008401A68
:103A700000D540420499884208DA07940C990995C8
:103A800006960490884201D1012703E06D1CEDB237
:103A9000A542B9D3641CE4B2102C01D2002FB0D0DF
:103AA0000B980068C26880210A43C2600698020A27
:103AB0000B98006842600698C2B20B9800680260DA
:103AC0000798099A000110430B9A126890620B98AC
:103AD0000068C2688A43C2600DB0F0BD80800440B7
:103AE0002C010010F8B51D4614460F460646012B62
:103AF00006D0022D04D0BC221E491FA0FFF7B4FD42
:103B0000042F01DD092F04DBBD221A4924A0FFF791
:103B1000ABFD002C0CD0012C0AD0022C08D0032CB9
:103B200006D0042C04D0BE2212492648FFF79CFD83
:103B3000681E7F1F052C14D223007B441B79DB18E1
:103B40009F440204070A0D00002500E0012500241F
:103B500007E001252C4604E00125022401E00125AF
:103B6000032480003843E9000843210108433168F9
:103B7000C860F8BD004200002873746F705F62690E
:103B80007473203D3D203129207C7C202873746F84
:103B9000705F62697473203D3D203229000000008F
:103BA00028646174615F62697473203E2034292047
:103BB00026262028646174615F62697473203C204A
:103BC0003929000070420000F7B5044628490198E1
:103BD000FFF7A6FE054627490298FFF7A1FE01461A
:103BE0002846FFF783FE0546401C04D13C222249AB
:103BF00022A0FFF739FD2548256001680122120344
:103C00001143016020680126866020680027476014
:103C10004B21C9012046FFF7D9FE012300220821CC
:103C20002046FFF75FFF12490198FFF7A7FE1149F1
:103C30000298FFF7A3FE0198401C03D002210198CF
:103C4000FFF72AFE0298401C03D002210298FFF7DA
:103C500023FE0F48281800D167600E48854205D121
:103C60000D484660626821680261C16003B0F0BD22
:103C700088410000C44100000042000028696E74C1
:103C8000297561727420213D204E430080800440DC
:103C90000080FFBF0080004034010010034B99609A
:103CA0004068194680000A50704700003401001037
:103CB0000068202342691A42FCD00160704700006E
:103CC00001490120086070470080014002484169B5
:103CD0004908490041617047008001400F48016870
:103CE00000291AD170B5012505600D48016802153B
:103CF000114301600B480C4C0068022161600B49C4
:103D0000FCF7D2FA401EE060656009491320FDF718
:103D1000A7FF0849E804086070BD7047480100101B
:103D2000808004402C0100100080014040420F00C0
:103D3000753D000000E100E070B5054672B64260D6
:103D40000B4A016014680020002C0CD02368CB1AA9
:103D500003D42046A468002CF8D1002803D0856045
:103D6000AC6062B670BD0846156000F07BF8F7E7FE
:103D70005001001010B5FFF7A3FF0D4C206800287C
:103D80000ED000F017F821680A68101A00280ADC23
:103D9000886820606268002AF0D048689047EDE7A4
:103DA000FFF794FF10BD086800F05CF810BD00003C
:103DB0005001001070B50F480F4C0168002917D151
:103DC000012505600D4801680215114301600C488A
:103DD0000221006861600B49FCF766FA401EE06052
:103DE000656009491320FDF73BFF0849E8040860B6
:103DF000A06870BD48010010008001408080044030
:103E00002C01001040420F00753D000000E100E071
:103E100010B572B60D4A116881420AD180681060EF
:103E2000002803D0006800F01DF80CE0FFF74EFFFB
:103E300009E0002907D08A68824202D18068886040
:103E400001E01100F7D162B610BD00005001001072
:103E500010B50446FFF742FF0148446010BD000062
:103E600050010010034988614869012210434861EC
:103E7000704700000080014070B50749FDF74EF81B
:103E8000FDF750F90446FFF795FF0546FFF792FF4F
:103E9000401BA042FAD370BD0024744970B57D2147
:103EA000C90048430446FFF785FF0546FFF782FF38
:103EB000401BA042FAD370BD7FB504460D4629468B
:103EC00020463C30039B029A00F066F80122022152
:103ED00020461430FFF7FCFA7FBD7FB504460D463F
:103EE000294620462030039B029A00F055F8012213
:103EF000114620461430FFF7EBFA7FBDF3B58BB0C7
:103F000004460A94082208A80C99FCF7EBFE0999CC
:103F100008980191009048100A9C0519089803918F
:103F20000290C807C00F04D1099908980591049020
:103F300006E00999089807910690296846183068A4
:103F400007462846B8470DB0F0BDF3B58BB0044620
:103F50000A94082208A80C99FCF7C4FE099908984D
:103F60000191009048100A9C05190898039102904D
:103F7000C807C00F04D1099908980591049006E07C
:103F800009990898079106902968461830680746ED
:103F90002846B8470DB0F0BD0FB54160039B029AAB
:103FA000C3608260024A8261002202600FBD00008D
:103FB0004B3F00007FB582B005460C460A9E28465E
:103FC0001430059A0499019200914460019A009975
:103FD000C2608160054981610021016000BF3146F6
:103FE0002846FEF721F906B070BD0000FD3E000036
:103FF000D508000000000000A50800000000000037
:104000006D6265642F5441524745545F4C504331B3
:104010003131342F5441524745545F4E58502F543C
:1040200041524745545F4C5043313158585F31310C
:104030004358582F6770696F5F6F626A6563742EAB
:10404000680000006D6265642F5441524745545F1B
:104050004C5043313131342F5441524745545F4E17
:1040600058502F5441524745545F4C5043313158BA
:10407000585F31314358582F6770696F5F6F626ABC
:104080006563742E68000000D50B0000000000007E
:10409000D50B000000000000C90C0000000000006B
:1040A0006F626A2D3E70696E20213D202850696E36
:1040B0004E616D65294E4300433A5C436F64655C15
:1040C0006769745F7265706F5C6769746875625C5C
:1040D0006D6265642D6F6666696369616C5C6275AB
:1040E000696C645C6D6265645C5441524745545F21
:1040F0004C5043313131345C5441524745545F4E4A
:1041000058505C5441524745545F4C5043313158EC
:10411000585F31314358585C6770696F5F6F626AEE
:104120006563742E68000000740B0000000000003E
:1041300002000000781000000100000002000000F2
:104140007C1100000200000002000000801200004C
:1041500003000000020000009414000005000000AD
:10416000010000006C1A00000600000001000000C1
:10417000981B00000700000001000000FFFF000086
:10418000FFFFFFFF00000000242800000080004027
:1041900002000000483500000080004002000000DE
:1041A000843000000080004003000000A8170000D9
:1041B0000080004001000000FFFF0000FFFFFFFF44
:1041C00000000000202700000080004002000000E6
:1041D0003C340000008000400200000088310000F4
:1041E0000080004003000000A41600000080004092
:1041F00001000000FFFF0000FFFFFFFF00000000C4
:10420000433A5C436F64655C6769745F7265706FA5
:104210005C6769746875625C6D6265642D6F666663
:10422000696369616C5C6C69627261726965735C17
:104230006D6265645C746172676574735C68616CFF
:104240005C5441524745545F4E58505C544152476C
:1042500045545F4C5043313158585F3131435858C1
:104260005C73657269616C5F6170692E6300000048
:1042700028706172697479203D3D205061726974C3
:10428000794E6F6E6529207C7C202870617269747C
:1042900079203D3D205061726974794F6464292012
:1042A0007C7C2028706172697479203D3D205061CA
:1042B000726974794576656E29207C7C202870614E
:1042C00072697479203D3D20506172697479466F3E
:1042D000726365643129207C7C2028706172697466
:1042E00079203D3D20506172697479466F72636533
:1042F000643029006F626A2D3E70696E20213D2076
:104300002850696E4E616D65294E4300433A5C4307
:104310006F64655C6769745F7265706F5C67697410
:104320006875625C6D6265642D6F6666696369615C
:104330006C5C6275696C645C6D6265645C5441526E
:104340004745545F4C5043313131345C54415247FE
:1043500045545F4E58505C5441524745545F4C5051
:1043600043313158585F31314358585C6770696F39
:104370005F6F626A6563742E68000000433A5C43B5
:104380006F64655C6769745F7265706F5C676974A0
:104390006875625C6D6265642D6F666669636961EC
:1043A0006C5C6C69627261726965735C6D62656494
:1043B0005C636F6D6D6F6E5C4275734F75742E63C9
:1043C000707000006F626A2D3E70696E20213D2082
:1043D0002850696E4E616D65294E4300433A5C4337
:1043E0006F64655C6769745F7265706F5C67697440
:1043F0006875625C6D6265642D6F6666696369618C
:104400006C5C6275696C645C6D6265645C5441529D
:104410004745545F4C5043313131345C544152472D
:1044200045545F4E58505C5441524745545F4C5080
:1044300043313158585F31314358585C6770696F68
:104440005F6F626A6563742E680000006F626A2D98
:104450003E70696E20213D202850696E4E616D6569
:10446000294E4300433A5C436F64655C6769745F3F
:104470007265706F5C6769746875625C6D626564B3
:104480002D6F6666696369616C5C6275696C645CFA
:104490006D6265645C5441524745545F4C504331F2
:1044A0003131345C5441524745545F4E58505C544E
:1044B00041524745545F4C5043313158585F313178
:1044C0004358585C6770696F5F6F626A6563742EEA
:1044D0006800000070696E20213D202850696E4EF2
:1044E000616D65294E430000433A5C436F64655C2F
:1044F0006769745F7265706F5C6769746875625C28
:104500006D6265642D6F6666696369616C5C6C6978
:10451000627261726965735C6D6265645C7461721C
:10452000676574735C68616C5C5441524745545FC5
:104530004E58505C5441524745545F4C50433131C2
:1045400058585F31314358585C6770696F5F6170CC
:10455000692E6300433A5C436F64655C6769745F0E
:104560007265706F5C6769746875625C6D626564C2
:104570002D6F6666696369616C5C6C6962726172F9
:104580006965735C6D6265645C74617267657473A0
:104590005C68616C5C5441524745545F4E58505CB6
:1045A0005441524745545F4C5043313158585F3164
:1045B000314358585C70696E6D61702E6300000065
:1045C000DDDDDDDDDCBBBBDDDDDDDDDDDDDDDDDD60
:1045D00098888888888888887777777777888888A0
:1045E0008555555666666666666666666668888838
:1045F0008333333222222222222222222228888D31
:104600000000000000000000F5250000F525000076
:10461000F5250000F5250000F5250000F525000032
:1046200000000000611D000000000000000000000C
:10463000000000000000000000000000000000007A
:1046400000000000391E000000000000F5250000F9
:104650000000000000000000E51E00000000000057
:104660000000000000000000F51F00000000000036
:1046700000000000000000002121000000000000F8
:104680000000000000000000812100000000000088
:104690000000000000000000B8FFFFFF0000000065
:1046A000992100008D2100000000000000000000A2
:1046B0009521000091210000000000000000000092
:1046C000000000008124000000000000B4FFFFFF94
:1046D00000000000000000000000000000000000DA
:1046E00000000000992100008D2100000000000062
:1046F0000000000095210000912100000000000052
:104700000522000000000000F5250000F52500004E
:10471000FCFFFFFF000000000000000000000000A0
:1047200000000000000000009D22000000000000CA
:1047300059220000000000000000000000000000FE
:1047400000000000C1220000000000000000000086
:1047500041230000000000000000000000000000F5
:10476000F5250000F5250000F5250000F5250000E1
:10477000F5250000F5250000000000009923000049
:1047800000000000FCFFFFFF000000000000000030
:1047900000000000B8470000C0000010B00000009A
:1047A000FE2500006848000070010010B005000000
:1047B0000E26000039BEFFFF340300003403000062
:1047C0009A9999999999A93F00000000000000006A
:1047D00000000000000000000000000000000000D9
:1047E00000000000000000000000000000000000C9
:1047F00000000000000000000000000000000000B9
:1048000000000000000000000000000000000000A8
:104810000000000000000000000000000000000098
:1048200000000010006CDC0200000000000000002E
:104830000000000000000000000000000000000078
:104840000000000000000000000000000000000068
:104850000000000000000000000000000000000058
:08486000000000000000000050
:0400000500000201F4
:00000001FF
